:020000040800F2
:100000002008002005020008050F0008B10C0008B8
:10001000F50C0008690300086311000800000000E7
:10002000000000000000000000000000F1100008C7
:10003000DD03000800000000C5100008F3100008F0
:100040001F0200081F0200081F0200081F0200080C
:100050001F0200081F0200081F0200081F020008FC
:100060001F0200081F0200081F0200081F020008EC
:100070001F0200081F0200081F0200081F020008DC
:100080001F0200081F0200081F0200081F020008CC
:100090001F0200081F0200081F0200081F020008BC
:1000A0001F0200081F0200081F0200081F020008AC
:1000B0001F0200081F0200081F0200081F0200089C
:1000C0001F0200081F0200081F0200081F0200088C
:1000D0001F0200081F0200081F0200081F0200087C
:1000E0001F0200081F0200081F0200081F0200086C
:1000F0001F0200081F0200081F0200081F0200085C
:100100001F0200081F0200081F0200081F0200084B
:100110001F0200081F0200081F0200081F0200083B
:100120001F0200081F0200081F0200081F0200082B
:1001300000F002F800F03CF80AA090E8000C8244BD
:100140008344AAF10107DA4501D100F031F8AFF29A
:10015000090EBAE80F0013F0010F18BFFB1A43F0A5
:10016000010318473C3300005C330000103A24BF01
:1001700078C878C1FAD8520724BF30C830C144BF0C
:1001800004680C607047000000230024002500264E
:10019000103A28BF78C1FBD8520728BF30C148BFEA
:1001A0000B6070471FB500F062F81FBD10B510BDA1
:1001B00000F0A4F81146FFF7F5FF01F093FD00F001
:1001C000C2F803B4FFF7F2FF03BC00F0C7F8000069
:1001D0000B49D1F800C04A685CF8043B1068184429
:1001E00042F8040B8C4528BFA1F1DC0C8A4228BFE1
:1001F000A1F1DC02C1F800C04A6020F00040704765
:10020000B80100200948804709480047FEE7FEE79B
:10021000FEE7FEE7FEE7FEE7FEE7FEE7FEE7FEE7B6
:1002200004480549054A064B704700006111000863
:1002300031010008200200202008002020040020B6
:10024000200400200B4910B5A1F17C020A4CC2E940
:100250003712372106E000EB104342F82130074BFC
:1002600000FB03400B1EA1F10101F4DC10BD0120D5
:10027000E8E7000058010020E119D666CD0D010025
:100280004FF0000200B5134694469646203922BF2F
:10029000A0E80C50A0E80C50B1F12001BFF4F7AF7A
:1002A000090728BFA0E80C5048BF0CC05DF804EB5C
:1002B000890028BF40F8042B08BF704748BF20F8CA
:1002C000022B11F0804F18BF00F8012B70477047C8
:1002D0007047704710B500F009F8006810BD10B500
:1002E000044600F003F8046010BD000000487047A9
:1002F000C001002000487047C00100207546FFF78C
:10030000F9FFAE4605006946534620F007008546D2
:1003100018B020B5FFF784FFBDE820404FF000067D
:100320004FF000074FF000084FF0000B21F00701DD
:10033000AC46ACE8C009ACE8C009ACE8C009ACE820
:10034000C0098D46704710B50446AFF300802046C3
:10035000BDE81040FFF735BF704700000149182085
:10036000ABBEFEE72600020000BFFEE7F8B504467C
:100370000A48406800900A48006802F0A1FC06465E
:100380002168009A501A02F09BFC0746314602F0A1
:10039000A1FB0546009820602846F8BD001000E04B
:1003A000440000200949096841F08071074A116042
:1003B0000021074A51601146096841F001011160AE
:1003C00004494143044A116070470000FCED00E01D
:1003D000001000E040420F0044000020704772B659
:1003E00000BFFEE72DE9F041224C234D234E20694A
:1003F0004FF04048E0B1E06802F0CCFA2A463346BC
:1004000002F0D4F801F03EFE01F0D6FA0546A068ED
:1004100001F0A0FB414602F09BFC01F01DFE2946C5
:1004200002F096FC2169C1F101012161BDE8F08172
:10043000FFF7CEFE02F08FF86FF01E073A4602F08B
:10044000EEFE01F01FFEA060FFF7C2FE02F083F88F
:100450003A4602F0E4FE01F015FEE06002F09AFA7E
:100460002A46334602F0A2F801F00CFE01F030FDFE
:10047000CCE700004800002044174154FB211940FC
:10048000C06A7047406A7047806A704701480068D8
:1004900070470000340000200348006803490978D1
:1004A0000844014908607047340000203C000020E7
:1004B00010B50848006840F01000064908600320A5
:1004C00000F098F80F2000F007F800F02BF800205B
:1004D00010BD00000020024070B504460E480078B0
:1004E0004FF47A71B1FBF0F00C490968B1FBF0F5FB
:1004F000284600F0C3FB08B1012070BD102C07D2C4
:1005000000222146501E00F037F80548046001E043
:100510000120F2E70020F0E73C000020400000202E
:100520003800002008B500BF1148806940F0010084
:100530000F4988610846806900F00100009000BF03
:1005400000BF00BF0846C06940F08050C86108463F
:10055000C06900F08050009000BF00BF00BF054997
:10056000486820F0E06040F00070486000BF08BDBF
:1005700000100240000001402DE9F05F80460D466A
:100580001646002700F016FE074639462A4633462F
:1005900001F00700C0F1070ABAF1040F02D94FF0C9
:1005A000040A01E0C0F1070AD14600F1040ABAF1D9
:1005B000070F02D24FF0000A01E0A0F1030AD4466F
:1005C0004FF0010A0AFA09FAAAF1010A0AEA020A34
:1005D0000AFA0CFA4FF0010B0BFA0CFBABF1010B12
:1005E0000BEA030B4AEA0B042146404600F0EAFD01
:1005F000BDE8F09F00BF00F00702064B19684FF6F8
:10060000FF031940044B0B4343EA0221014B1960DD
:1006100000BF70470CED00E00000FA0570B504461D
:100620000D460CB9012070BD5A48006800F0070063
:10063000A8420ED25748006820F0070028435549C9
:1006400008600846006800F00700A84201D00120B9
:10065000E9E7207800F0020002281DD1207800F0A0
:100660000400042805D14C48406840F4E0604A4941
:100670004860207800F00800082805D14648406806
:1006800040F46050444948604348406820F0F0001E
:10069000A168084340494860207800F0010078B321
:1006A0006068012806D13C48006800F4003090B929
:1006B0000120B8E76068022806D13748006800F0DA
:1006C000007040B90120AEE73348006800F0020036
:1006D00008B90120A7E73048406820F003006168AE
:1006E00008432D494860FFF7D1FE064609E0FFF7B1
:1006F000CDFE801B41F28831884202D9032092E767
:1007000007E02548406800F00C006168B0EB810FFD
:10071000EDD12048006800F00700A8420ED91D481E
:10072000006820F0070028431A490860084600685E
:1007300000F00700A84201D0012074E7207800F003
:100740000400042807D11448406820F4E060E16800
:10075000084311494860207800F00800082808D1B3
:100760000D48406820F46050216940EAC1000A4900
:10077000486000F019F808494968C1F30311074AB5
:10078000515CC8400649086006480068FFF7A4FEAF
:10079000002048E700200240001002400833000813
:1007A000400000203800002070B500210022002405
:1007B00000230020134D696801F00C05F5B1042DEC
:1007C00002D0082D19D101E00F4819E00F4DC1F3F7
:1007D0008346AB5D01F4803555B10A4D6D68C5F3B4
:1007E00040450B4E725D084D5D43B5FBF2F402E0EF
:1007F000084D03FB05F4204602E000BF024800BF9D
:1008000000BF70BD0010024000127A00F6320008EE
:100810000633000800093D00F8B504460CB9012074
:10082000F8BD207800F00100002878D0F848406832
:1008300000F00C0004280CD0F548406800F00C00D3
:10084000082811D1F248406800F48030B0F5803FAC
:100850000AD1EF48006800F4003000285FD06068DB
:1008600000285CD10120DBE700BF6068B0F5803F65
:1008700006D1E748006840F48030E549086028E088
:10088000606858B9E248006820F48030E0490860A8
:100890000846006820F4802008601AE06068B0F51F
:1008A000A02F0BD1DA48006840F48020D8490860B6
:1008B0000846006840F4803008600AE0D4480068C8
:1008C00020F48030D24908600846006820F4802077
:1008D000086000BF606888B1FFF7D8FD054606E0F4
:1008E000FFF7D4FD401B642801D9032098E7C848CE
:1008F000006800F400300028F2D010E0FFF7C6FDD9
:10090000054606E0FFF7C2FD401B642801D903201D
:1009100086E7BF48006800F400300028F2D1207854
:1009200000F00200022857D1B948406800F00C00DE
:1009300050B1B748406800F00C00082818D1B448FE
:10094000406800F4803098B9B148006800F00200B7
:1009500020B12069012801D0012061E7AC4800687E
:1009600020F0F800616940EAC100A949086033E05D
:100970002069E8B10120A7490860FFF787FD054617
:1009800006E0FFF783FD401B022801D9032047E75B
:100990009F48006800F002000028F2D09C480068E0
:1009A00020F0F800616940EAC1009949086013E04D
:1009B000002098490860FFF769FD054606E0FFF74B
:1009C00065FD401B022801D9032029E790480068F3
:1009D00000F002000028F2D1207800F0080008287A
:1009E0002DD1A069B8B101208B490860FFF74EFDF9
:1009F000054606E0FFF74AFD401B022801D9032007
:100A00000EE78348406A00F002000028F2D001207F
:100A100000F05AFB13E000207F490860FFF736FD25
:100A2000054606E0FFF732FD401B022801D90320EE
:100A3000F6E67748406A00F002000028F2D12078FC
:100A400000F00400042873D100277148C06900F049
:100A5000805070B900BF6E48C06940F080506C494A
:100A6000C8610846C06900F08050009000BF00BF18
:100A700001276A48006800F48070B0B967480068D0
:100A800040F4807065490860FFF700FD054606E008
:100A9000FFF7FCFC401B642801D90320C0E65F4837
:100AA000006800F480700028F2D000BFE0680128E0
:100AB00006D15748006A40F001005549086227E016
:100AC000E06858B95248006A20F0010050490862B5
:100AD0000846006A20F00400086219E0E068052872
:100AE0000BD14B48006A40F00400494908620846AF
:100AF000006A40F0010008620AE04548006A20F000
:100B00000100434908620846006A20F004000862B8
:100B100000BFE068A0B1FFF7B9FC054609E0FFF7A8
:100B2000B5FC401B41F28831884202D9032077E6A8
:100B300022E03748006A00F002000028EFD012E0FF
:100B4000FFF7A4FC054608E0FFF7A0FC401B41F2BC
:100B50008831884201D9032062E62D48006A00F0FE
:100B600002000028F0D1012F05D12948C06920F0EA
:100B700080502749C86100BFE069C8B32448406875
:100B800000F00C00082860D0E069022848D100205D
:100B900020490866FFF77AFC054606E0FFF776FC79
:100BA000401B022801D903203AE61948006800F0EA
:100BB00000700028F2D1206AB0F5803F07D11448B8
:100BC000406820F40030A168084311494860D4E926
:100BD000080108430E49496821F4741108430C497F
:100BE000486001200B490866FFF750FC054607E006
:100BF0003DE0FFF74BFC401B022801D903200FE624
:100C00000348006800F000700028F2D02FE00000D8
:100C10000010024000004242800442420070004046
:100C2000002014490866FFF731FC054606E0FFF78F
:100C30002DFC401B022801D90320F1E50E48006875
:100C400000F000700028F2D111E0E069012800D125
:100C5000E6E50948466806F48031206A814204D1FD
:100C600006F47011606A814201D00120D8E50020AD
:100C7000D6E50000000042420010024070B5044674
:100C80002546681EB0F1807F01D301200FE0681E69
:100C90004FF0E02148610F214FF0FF3000F092FA51
:100CA00000204FF0E021886107200861002070BD1E
:100CB00000BFFEE708B500BF0D48806940F0200086
:100CC0000B4988610846806900F02000009000BF51
:100CD00000BF00BF0846806940F0040088610846F4
:100CE000806900F00400009000BF00BF08BD000054
:100CF0000010024000BFFEE70C4941630C498163CC
:100D00000C49C1630C4901640C4941640C4981647C
:100D10004FF07C51C1640B49016300214160816047
:100D2000C1608161C1610162704700001283403D72
:100D30008FC2F53C2DB23D3FFE65373F6666E63F0C
:100D40002766BD3B0000C0412DE9F047056B0E460C
:100D5000044685F0004791463946304601F0C4FF0D
:100D600001D23D4605E02946304602F0BDF800D3E9
:100D700035466768606C394601F0EAFFA668804630
:100D80003146206C01F0E4FF294602F00FF941469C
:100D900002F09EF9A16C01F09DFE2061A16901F0B5
:100DA00025FE494601F0D4FF4FF0FF35294602F0F9
:100DB00064FA394601F01AFE014660604C4A26F09A
:100DC000004090420ADAE06B01F0C2FF20F00040E0
:100DD000E16C01F089FF01D200201AE0A66816F14B
:100DE000FF4F02D24FF07E5000E04248E16C01F02C
:100DF000AFFF07463146A06B01F0AAFF06466168C7
:100E0000E06B01F0A5FF314602F062F9394602F0CD
:100E10005FF96061616B01F05DFE60610646E1694A
:100E200001F0E4FD494601F093FF2F46294602F008
:100E300024FAA16801F0DAFDA0600546216A01F0FC
:100E4000D5FD494601F084FF394602F016FAE16803
:100E500001F0CCFDE06020692562C4E90606FFF7D9
:100E6000C1FA254901F074FF616801F0BFFD234E0E
:100E7000314601F02FFE0D2102F0FFF900F05AFE7D
:100E800001F006FF6FF00C05294602F0F6F9314635
:100E900001F05EFF1A4E60623146E06801F01AFE12
:100EA0000D2102F0EAF900F045FE01F0F1FE2946BD
:100EB00002F0E3F9314601F04BFFE16A02F008F974
:100EC000494601F007FEA0623146E06801F002FEEB
:100ED0000D2102F0D2F900F02DFE01F0D9FE2946D5
:100EE00002F0CBF9314601F033FFE062BDE8F08754
:100EF0006F12033B000080BF9A99993E56555541A9
:100F0000DA0FC94000BFFEE72DE9F05F07460D4646
:100F100014461E460021284601F0E6FE02D80020B5
:100F2000BDE8F09F3146384602F0D2F820622946EB
:100F3000206A01F00DFF8046A16901F057FDA06114
:100F40002049A06901F0D0FF02D21E48A06106E04E
:100F50001D49A06901F0C8FE01D21B48A061D4E977
:100F6000071002F0B5F88046294601F0B3FDA062F3
:100F7000A16A206901F0ECFE8146A169A06801F038
:100F8000E7FE8246216A206801F0E2FE8346514670
:100F900001F02CFD8046494601F028FDE062094938
:100FA000E06A01F0A1FF02D20648E06206E00649CD
:100FB000E06A01F099FE01D20348E062206AE06134
:100FC000E06AADE700401C4600401CC62DE9F05F1A
:100FD00007460D4614461E460021284601F084FEB1
:100FE00002D80020BDE8F09F3146384602F070F884
:100FF00020622946206A01F0ABFE8046A16901F01B
:10100000F5FCA0612049A06901F06EFF02D21E48E4
:10101000A06106E01D49A06901F066FE01D21B48EF
:10102000A061D4E9071002F053F88046294601F088
:1010300051FDA062A16A606901F08AFE8146A16942
:10104000E06801F085FE8246216A606801F080FE5A
:101050008346514601F0CAFC8046494601F0C6FC71
:10106000E0620949E06A01F03FFF02D20648E0620F
:1010700006E00649E06A01F037FE01D20348E0626B
:10108000206AE061E06AADE700401C4600401CC6F3
:1010900000B9704708490160416008498160C1603A
:1010A00007490161416100218161C16101624162C1
:1010B000816200BFEDE7000000002041CDCCCC3DB7
:1010C0000AD7233C7047000008B508490968C908D9
:1010D0004FF47A72B1FBF2F14143009100BF00BFBF
:1010E00000994A1E00920029F9D108BD4000002055
:1010F000704710B5FFF7D0F910BD00B58FB02821AB
:1011000005A8FFF7BDF814216846FFF7B9F80120DC
:10111000059000040690002007900120099002200D
:101120000C90C1030D914FF4E0110E9105A8FFF74B
:1011300073FB08B1FFF753F90F20009002200190D4
:10114000002002904FF48060039000200490022160
:101150006846FFF763FA08B1FFF741F90FB000BD29
:10116000704700BFFEE7490050EAC12018BF0420C5
:101170004A0D18BF40F0010040F2FF72B2EB515F20
:1011800008BF40F00200012808BF05207047410059
:10119000080218BF04200A0E18BF40F001004FF0EB
:1011A0007F4232EA010108BF40F00200012808BF77
:1011B0000520704702480068C0F302207047000015
:1011C0000CED00E010B5002804DB0A07130E054AF9
:1011D000135406E00A07140E034A00F00F031B1F06
:1011E000D45410BD00E400E018ED00E02DE9F74F05
:1011F000144694B00021C4E902111599079121F019
:101200000045C9498D4206DC1599C4E9000117B0B3
:101210000020BDE8F08FC549DFF814A3A9423CDDEA
:101220000799C44E0029C44FC44A1599534619DD85
:1012300001F0C6FA554506D0C14AC24B01F0C0FACA
:10124000C4E900010AE04FF0D352BE4B01F0B8FAF6
:1012500032463B4601F0B4FAC4E9000117B0012060
:10126000BDE8F08F00F040FF554506D0B44AB54BBD
:1012700000F03AFFC4E900010AE04FF0D352B14B4D
:1012800000F032FF32463B4600F02EFFC4E9000179
:1012900017B04FF0FF30BDE8F08FAB49A942159968
:1012A00078DB21F0004183468846A84AA84B01F02C
:1012B0007DF90022A74B00F017FF01F01DF90990FE
:1012C00001F049F906460F469C4A534601F06EF973
:1012D00043465A4601F068FA80468A46984A994B36
:1012E0003046394601F062F92A0D01250B9242463B
:1012F000534601F059FA032DC4E9000139D00B9887
:10130000C1F30A51401A05EB45111139814230DA17
:101310009148C346784400EB0510CDF80CA00C9022
:10132000D0E900233046394601F040F902460B4629
:10133000049106905846039901F042FA80468A4685
:1013400002460B465846039901F03AFA049B069A66
:1013500001F036FA83460C9803913946D0E902230E
:10136000304601F023F95A46039B01F029FA6D1C1F
:10137000BDE707980028A2BF099817B0BDE8F08F15
:10138000616881F000416160099817B04042BDE892
:10139000F08FFFE784461598C1F31301C0F30A509C
:1013A000A0F2F5304FEA601800F01F06C6F12000E9
:1013B000139000200690079041F4801E05206D4692
:1013C00076B1664A08EB00017A4452F8213002EB0C
:1013D0008101B3404A68139922FA01F1194305E0EB
:1013E0005F4908EB0002794451F82210A1FB0E2757
:1013F000A1FB0C131A449A4234BF0123002303EBD0
:10140000070A05EB8003D3E901B70F448F4234BFCD
:101410000121002193448B4411B1934502D903E08B
:10142000934501D2012100E00021C3E901B75144F5
:1014300045F82010011EA0F10100C1DC0298059FB3
:1014400000F10050800F12900298DDE903568000F1
:1014500001F081F8834628460D9101F093F86FF072
:101460001D0201F0DCFECDE90E01304601F08AF8E4
:101470006FF03D0201F0D3FE80468A46384601F007
:1014800081F86FF05D0201F0CAFE074642465346FE
:10149000119100F029FEDDE90E2300F025FE5A46E9
:1014A0000D9B00F021FE00250E465A4628460D9B56
:1014B00001F086F9DDE90E2301F082F94246534638
:1014C00001F07EF93A46119B01F06EF9DFF898A021
:1014D000244A534601F06AF807468846234A244BBB
:1014E0003146284601F062F83A46434600F0FCFDDA
:1014F000074688464FF0A84253463146284601F039
:1015000055F83A46434600F0EFFD159A12F0004FA9
:1015100004D0129A81F0004152421292C4E90001B3
:10152000129817B0BDE8F08FFB21E93F7CD902404B
:10153000FB21F93F7370032E8A19A33B000040542E
:101540003163621A61B4D03DFB21394183C8C96D52
:10155000305FE43F0000E03F78200000F41F00000F
:10156000D61F0000182D4454FB21F93D3326A61147
:10157000460B113C2DE9FF4D21F0004807460C4673
:10158000B8F1795F08DA00F0B7FF002801BF00204A
:10159000324904B0BDE8F08D3A462346104619465C
:1015A00001F004F8054602462D480E460B4606217A
:1015B000784400F05DF82A46334600F0F7FFDDE995
:1015C000022382468B463846214600F0EFFF044650
:1015D0000F4652465B462846314600F0E7FF22465A
:1015E0003B4601F0EDF807468A464FF0FF322846A9
:1015F000314601F014FE1B4A90450ADA3A4653463A
:1016000001F0DEF804B00022BDE8F04D134B01F00C
:10161000CBB8154A4245A8BFA8F500154FF0000405
:10162000B8BF124D22462B4601F0CAF8064688463E
:1016300022462B460020094901F0C2F804460D4617
:101640003A4653463046414601F0BAF804B02246C5
:101650002B46BDE8F04D01F0A7B800000000F03FB8
:10166000AC1D00003333D33F0000E93F0000D23F00
:101670002DE9F0414F1E00EBC7010446D1E90001FE
:1016800015461E4637F006020DD02A46334600F0B6
:101690008DFF7F1E04EBC703D3E9002300F024FD78
:1016A00037F00602F1D1022F25D0042F13D0062FD8
:1016B00018BFBDE8F0812A46334600F077FFD4E931
:1016C0000A2300F011FD2A46334600F06FFFD4E9EB
:1016D000082300F009FD2A46334600F067FFD4E9ED
:1016E000062300F001FD2A46334600F05FFFD4E9EF
:1016F000042300F0F9FC2A46334600F057FFD4E9F2
:10170000022300F0F1FC2A46334600F04FFFD4E9F3
:101710000023BDE8F04100F0E7BC00002DE9FF4DDB
:10172000054621F0004084B00C46B0F1795F0BDA39
:101730002846FFF718FD042808BF00F06FF8284678
:1017400008B02146BDE8F08D2A460B46104600F051
:101750002DFF06460F462A46234600F027FF804607
:1017600026488A4632463B4605217844FFF780FFEB
:1017700083461098029160B3214A224B404651465D
:1017800000F014FFCDE900015A4640465146029B45
:1017900000F00CFF82468846DDE906014FF0FF327B
:1017A00001F03DFD5246434601F00AF832463B4601
:1017B00000F0FCFEDDE9062301F002F8DDE900237C
:1017C00000F0FEFF08B02A462346BDE8F04D00F0C9
:1017D000EBBF0B465A463046394600F0E7FE084A52
:1017E000084B00F081FC4246534600F0DFFE08B093
:1017F0002A462346BDE8F04D00F076BC0A1D0000E5
:10180000495555555555C5BF012201F008BD002267
:1018100013461046114600F017BD0000024A002092
:10182000110701F0FCBC000001FDFFFF00214FF09B
:101830007E5001F04FB9012101F01FBD0021084683
:1018400001F048B96FF05E01080701F016BD000015
:101850002DE9F04D0D4614464FF07F41B1EB440F9A
:101860009EBF4FF0FF312960BDE8F08D4FF0004082
:1018700040EA0421C4F3C750783810F01F024A4BE5
:101880004FEA601CC2F120067B44C4F3C750A0F1AC
:1018900078004FEA601003EB800053F82C3008BF4B
:1018A000D0E901C612D0D0F804C093402CFA06F754
:1018B0003B4387680CFA02FC27FA06F8C06807FA6F
:1018C00002F2F0404CEA080C42EA0006A3FB0132A7
:1018D000ACFB01C0A6FB016101EB0C068E4234BFDC
:1018E0004FF0010C4FF0000CC1186144BCF1000F27
:1018F00002D0814202D903E0814201D2012000E0FE
:101900000020104400F120024FEA92188006CA0C11
:1019100040EA42304F03C5F8008001F0B9F9824631
:10192000384601F0CDF96FF0120101F0A6FC074630
:10193000304601F0C5F96FF0250101F09EFC8346A9
:101940003946504601F052F8594601F04FF800F57B
:1019500000666FF30B065146304601F0B9FB39467D
:1019600001F0B6FB594601F021FB104901F0F0F9F6
:1019700007460F49304601F0EBF9394601F036F8D9
:1019800007460C49304601F0E3F9394601F02EF8DC
:1019900014F0004F08BFBDE8F08DC8F1805180F011
:1019A00000402960BDE8F08DCC1B0000DB0FC92F83
:1019B00022AAFD290000C92F2DE9F843044602465A
:1019C0004F486946B0EB420F09D94FF0E640B0EB03
:1019D000420F94BF00204FF0FF30009030E0494BA1
:1019E00022F00040834271D94749204601F0B0F906
:1019F00001F0ACFA804601F02FF900F003000090EE
:101A00004249404601F0A4F905464149404601F0EB
:101A10009FF906463F49404601F09AF907463E497C
:101A2000404601F095F9214601F0C0FA394601F02F
:101A30004FFB314601F04CFB294601F049FB0446BF
:101A40002546009C002C45DB294614F0010F084672
:101A50001CD001F07DF90646304901F079F9304992
:101A600001F0A4FA314601F073F92E4900F0BEFFEF
:101A7000314601F06DF9294601F06AF9294600F076
:101A8000B5FF14F0020F1CD0BDE8F88301F060F937
:101A90000546254901F05CF9244900F0A7FF2946D5
:101AA00001F056F9224900F0A1FF294601F050F952
:101AB0004FF07E5100F09AFF14F0020F08BFBDE80E
:101AC000F88380F00040BDE8F883FFE71046FFF799
:101AD000BFFEB4E76800B0F17F4F3CBF4FF07E50CF
:101AE000BDE8F88307D14FF00100FEF7F8FBBDE831
:101AF000F843FFF7A3BE2846BDE8F843FFF79BBEB7
:101B0000B61F927E490E494683F9223F1A61342C52
:101B10000020A23300A0FD390000C93F336D4C39CD
:101B2000DA82083CA0AA2ABEB93AB2BACA9F2A3DB4
:101B3000DDFFFFBE70B5054601F08EF8044601F0EA
:101B4000A7F8294601F032FAB0F17C5F00DD641C91
:101B5000204670BD2DE9F0410026A0F50001B1F14D
:101B6000FE4F7DD200F500226FF07E0101EBE251C5
:101B7000C2F3025477184FF07E52A0EBC15602EB2D
:101B8000045557EA040047D02946304600F02EFF9E
:101B900080462946304601F09BFA414600F09AFF04
:101BA0000546014601F0D4F88046454901F0D0F8D9
:101BB000444900F01BFF06464146284601F0C8F89C
:101BC000314601F0C5F80646384601F061F807468F
:101BD0003D4901F0BDF83D49794451F8241000F029
:101BE00005FF314600F002FF06460121284601F0BC
:101BF00044FB314600F0FAFE05463846344901F010
:101C0000A7F83449794451F8241000F0EFFE294632
:101C1000BDE8F04100F0EABE4FF07E51304601F0E1
:101C200057FA05462C4901F093F82C4900F0DEFEE6
:101C3000294601F08DF82A4900F0D8FE294601F026
:101C400087F86FF0824100F0D1FE0446294608462D
:101C500001F07EF8214601F07BF80146284600E0BD
:101C600003E0BDE8F04100F0C1BE4FF07F42B2EBAF
:101C7000400F03D2BDE8F041FFF7DDBDB0F1FF4FEB
:101C800008BFBDE8F081B0F1004F06D90120FEF792
:101C900026FBBDE8F041FFF7D1BD30F0004105D093
:101CA0006FF01606172101F0E8FA5BE70220FEF755
:101CB00016FBFFF7BBFD80F00040BDE8F08100009F
:101CC00066F1CC3EAAAA2A3FF4FD0538641700004D
:101CD0000070313F1817000021ED423E0A1180BE0E
:101CE000C1ABAA3EFEF7E4FBFFF707FAFEF7E2FFFF
:101CF0004820FEF757FB4148FEF7FEFF4048FFF73C
:101D0000C7F97AE03F48FEF731FB3F4908600846D3
:101D100001683E48006800F069FE3C4908603748A9
:101D2000FEF7B0FB364948623448FEF7ADFB384950
:101D300008603248FEF7A4FB364908603648006860
:101D4000012822D1314801683448006801F000F8C8
:101D5000824600F01FFE064600F06AF804464FF087
:101D600080422F4B00F022FC804600F08BF92D4979
:101D700008602748224A0368234801682948006808
:101D8000FFF7C2F82849086030E0234800680228BD
:101D90002CD11E4801682148006800F0D9FF824616
:101DA00000F0F8FD804600F043F806464FF0804210
:101DB0001B4B00F0FBFB044600F064F91B49086074
:101DC00014480F4A03681048016818480068FFF774
:101DD0009BF8144908600E48094A03680A480168DC
:101DE00010480068FFF7F2F80F49086006480268DB
:101DF0000D4801680148FEF7A7FF83E75C0000205B
:101E0000AC0000201C000020200000202400002046
:101E100010000020140000202C00002008000020EA
:101E2000FB2119400C000020280000201800002091
:101E300000B5254B21F0004287B09A4203DC002216
:101E4000134600922BE0214B9A4208D140B94FF043
:101E50000100FEF744FAFFF7DAFC07B000BD03DB30
:101E6000FFF7D2FC07B000BD02AAFFF7BFF910F0E0
:101E700003014FF001000DD0012914D002291AD01E
:101E80000DF1080C9CE80F00FFF774FB07B081F020
:101E9000004100BD0DF1080C00909CE80F00FFF719
:101EA0003DFC07B000BD0DF1080C9CE80F00FFF7EA
:101EB00061FB07B000BD0DF1080C00909CE80F001D
:101EC000FFF72CFCE2E70000FB21E93F0000F07F78
:101ED0002DE9F8430446024652486946B0EB420FEA
:101EE00009D94FF0E640B0EB420F94BF00204FF00D
:101EF000FF30009030E04C4B22F00040834271D91B
:101F00004A49204600F024FF01F020F8804600F006
:101F1000A3FE00F0030000904549404600F018FF82
:101F200005464449404600F013FF064642494046F4
:101F300000F00EFF07464149404600F009FF2146E8
:101F400001F034F8394601F0C3F8314601F0C0F829
:101F5000294601F0BDF804462546009C002C45DBCF
:101F6000294614F0010F08461ED000F0F1FE054688
:101F7000334900F0EDFE334900F038FD294600F00A
:101F8000E7FE314900F032FD294600F0E1FE4FF056
:101F90007E5100F02BFD14F0020F08BFBDE8F8835E
:101FA00080F00040BDE8F88300F0D2FE06462749E5
:101FB00000F0CEFE264900F0F9FF314600F0C8FEE1
:101FC000244900F013FD314600F0C2FE294600F01E
:101FD000BFFE294600F00AFD14F0020FE0D1BDE873
:101FE000F883FFE71046FFF733FCB4E76800B0F171
:101FF0007F4F09D22846FFF7CAF8042808BFFFF729
:1020000021FC2846BDE8F88306D10120FEF767F9D8
:10201000BDE8F843FFF712BC2846BDE8F843FFF7D8
:102020000ABC0000B61F927E490E494683F9223F42
:102030001A61342C0020A23300A0FD390000C93FF2
:10204000B93AB2BACA9F2A3DDDFFFFBE336D4C39A3
:10205000DA82083CA0AA2ABE70B5054600F0B0FF9F
:10206000044620F00040C0F1FF40C00F08D025F02A
:102070000040C0F1FF40C00F04BF0120FEF72FF960
:10208000204670BD21F00042A2F16052B2F5801FDF
:1020900001F0004328BFD2F17F6C0BD95FEA001C2E
:1020A00043EAC20242EB507018BF704728BF20F0CD
:1020B00001007047B2F5801FBCBF184670474FEA59
:1020C000410C1CF5001F02D2084600F008BF70B595
:1020D00000F016FB00000089FFF7F6BF4FF000404C
:1020E000A0F580007047000010B591EA030F48BFCB
:1020F00083F0004300F16C83841A71EB030C05D26A
:10210000121943EB0C03001B61EB0C01DFF824E117
:102110004FEA1154A4EB135C1EEA430F18BF9EEA6A
:10212000445F73D023EA0E03DCF1200E21EA045150
:1021300043F4801332D322FA0CFE10EB0E0023FA84
:102140000CFE41EB0E01CCF1200E03FA0EFE10EB5B
:102150000E0051F10001B1F5801FCCF1200E32D2FA
:1021600001EB045112FA0EF2BDE8104058BF70475F
:10217000401C38BF5FEA420218BF7047002814BFF6
:1021800020F0010041F100014FEA410313F5001F67
:1021900038BF7047A1F1C04100F000BB012A43EBFA
:1021A0000302ACF1200CDCF11F0E32BF4FF0000E29
:1021B00023FA0CF310EB030041EB0451B4EB115F75
:1021C000D0D0A1EB045101F5801149085FEA30003D
:1021D00001EB04510ED350F1000038BF12FA0EFE8D
:1021E00008D1BDE81040C9E7401C38BF5FEA420291
:1021F000CAD1C3E7BDE810404FEA410313F5001F01
:1022000038BF7047A1F1C04100F0C8BA9EEA445FF0
:1022100008D011EA5E0FBDE8104004BF01F0004194
:1022200000207047BDE8104070B500F069FA00BFAB
:1022300064FBBE3E0000E0FF02494FF0000000F0EA
:10224000BCBF00BF0000F87F2DE9C04130B4DFF80B
:10225000A0C23CEA111418BF3CEA131400F0EC8051
:1022600081EA03051CEA111444EAD57418BF1CEA7C
:10227000131500F0C780A4EB05044FF0004545EAB4
:10228000C12145EAC32341EA505143EA525304F1C4
:102290007F74994204F500344FEAC0204FEAC2220D
:1022A00008BF904200F09C804FEA13650FF2401681
:1022B000765D4FEA134506FB05F7C7F1807706FB0D
:1022C00007F74FEAD737A7FB03687642C8F580388F
:1022D000A7FB06CE38BFA8F1010807FB08E64FF0C0
:1022E000000EA6FB028CE6FB03CEDCF1000CCEF167
:1022F000004E38BFAEF1010EA6FB0C584FF00007A0
:102300004FF00005E6FB0E87A1FB08C6A0FB07CE39
:1023100016EB0E0645F10005E1FB076515F1E04EF1
:102320007EBFA4F580345FEA46066D4116F1800752
:1023300045F100054FEA17274FEA066647EA0567A9
:10234000A6F1DE46B6F1805F4FEA15251FD9384663
:1023500024F0010C05EBC471BCF1FE6F01EB0C1114
:1023600002D8F0BCBDE8008124425CBF01F5801EAC
:102370009EEAC47F02D4F0BCBDE80081244238D478
:10238000F0BCA1F1C041BDE8004100F007BA4FEA3E
:10239000D22242EA43524FEAD323A7FB02864FEAF6
:1023A000D02040EA415007FB03661EEA0E0F4FEAB9
:1023B000D12105FB026658BFA6EB0056B6EB0056CE
:1023C0004FEA520E4EEAC37E18EB0E0E56EB530E3A
:1023D000BDD518EB02085E417F1C55F10005B6E73C
:1023E0004FF480154FF000074FF000064FF0000843
:1023F000ADE7F0BC4FF0000001F1C04101F0004139
:10240000BDE8008111EA0C1F0CEA131500D00CE0A6
:1024100013EA0C1F00F025804FF00000F0BC81EAA9
:10242000030101F00041BDE80081F0BCBDE80041BE
:1024300081EA030100F0B2B9F0BCBDE8004170B51B
:1024400000F05EF9097EFC3E00F007B881EA030166
:102450004FF0000001F00041704781EA030100F0F5
:102460009DB9F0BCBDE800414FF000002149704724
:10247000FFFDFBF9F7F5F4F2F0EEEDEBE9E8E6E449
:10248000E3E1E0DEDDDBDAD8D7D5D4D3D1D0CFCDD0
:10249000CCCBCAC8C7C6C5C4C2C1C0BFBEBDBCBB09
:1024A000BAB9B8B7B6B5B4B3B2B1B0AFAEADACAB04
:1024B000AAA9A8A8A7A6A5A4A3A3A2A1A09F9F9EDE
:1024C0009D9C9C9B9A999998979796959594939390
:1024D000929191908F8F8E8E8D8C8C8B8B8A898927
:1024E00088888787868585848483838282818180AA
:1024F0000000FF070000F87F4FEA41034FEA535303
:10250000A3F58063D3F11E03C8BFD3F1210C0CDD0A
:102510004FF0004242EAC12242EA505232FA03FC32
:102520008CEAE17CACEBE1707047102BC4BF00205B
:10253000704703F5787CBCF1FF3F04D06FF0004298
:1025400082EA2100704770B500F0DAF849922480E1
:1025500000207047F2E710F0004248BF4042B0FA56
:1025600080F310FA03F10AD0C3F11D0303F5806371
:102570004FEA415002EB035202EBD12170474FF07A
:1025800000007047B0FA80F310FA03F10AD0C3F1EB
:102590001D0303F580634FEA41504FEA035202EBFB
:1025A000D12170474FF0000070470000DFF848C1AC
:1025B00070B51CEA111E1EBF1CEA13159EEA0C0F13
:1025C00095EA0C0F00F06F8081EA030423EA4C13B4
:1025D0004EEAD47E21EA4C1141F4801143F4801379
:1025E000AE44A1FB024CA0FB0365AEF17F7E361921
:1025F00055EB0C05A1FB034C4CF10003A0FB021CA6
:1026000016EB0C06654153F10003094218BF46F072
:10261000010613F4007F0BD14FEA03314FEA053076
:10262000340341EA155140EA16506FF003020AE004
:102630004FEAC3214FEAC520F40241EA555140EA6E
:1026400056506FF0020202EB2E4201EB025585EA72
:10265000CE710AD05FEA440C18BF24F0004450F158
:10266000000041F1000120EAD47040F2FE7C624596
:1026700000D270BDA84214BF4FF080444FF04044D8
:10268000002E08BF0024BEF1806FA8BFA1F1C04199
:10269000BDE8704080F282804FF0000001F1C0413F
:1026A00001F0004170479EEA0C0F0CEA131518BFA9
:1026B00095EA0C0F06D04FF0000081EA030E0EF0F1
:1026C000004170BD00F01CF88900013E00F007B821
:1026D00000F009B84FEA430C5FEA5C5C08D081EA7D
:1026E000030100F05BB84FEA410C5FEA5C5CF6D195
:1026F0004FF00000014970470000FF070000F87F1D
:102700000EF1020E2EF0030E5EF8046B364205D475
:10271000012A43EB030515F5001F12D8012841EBF0
:10272000010C1CF5001F0CD80ED14FEAD17C15F519
:10273000001F0CEB4C0C0CF1020C08BF4CEBD37CD3
:1027400004E04FF0080C01E04FEAD37C0CEB4C05A1
:1027500026FA05F606F00706B6F1040C06D20EEBD3
:10276000860CBDE870404CF0010C6047DFE80CF0CF
:10277000090B02024FF000414FF00000A1F50021CB
:1027800070BD19461046012851EB010418BFD4F55D
:10279000001484BF002001F0004170BD0808A0F5BE
:1027A00000114FEA3101704791EA030F10B581F033
:1027B00000413FF5A1AC83F0004300F009B80000F0
:1027C00010B591EA030F48BF83F000433FF594AC86
:1027D000841A71EB030C07D212198CF0004C43EBF6
:1027E0000C03001B61EB0C01DFF8A4E14FEA11546C
:1027F000A4EB135C1EEA430F18BF9EEA445F00F08F
:10280000B08023EA6E03524221EA0451C3EB6E0307
:1028100038BF5B1EDCF1200E25D322FA0CFE10EB34
:102820000E0043FA0CFE41EB0E01CCF1200E03FA30
:102830000EFE10EB0E0051F10001CCF1200E29D458
:1028400012FA0EF201EB0451BDE8104058BF704778
:10285000401C1CBFB2F1004F704700280CBF491C40
:1028600020F00100704712EB020E43EB030218BF89
:102870004FF0010E4EEA4202ACF1200CDCF11E0ECC
:1028800054D943FA0CFE10EB0E0051F1FF31CCF19C
:102890001E0ED5D50EF1010E12FA0EFE404141EB8F
:1028A000010101EB445C5FEA5C5C10D910EBDE7067
:1028B00001EB045138BFBEF1004FBDE8104018BF16
:1028C000704700280CBF491C20F00100704730D22F
:1028D0004FEAD42C11F5001124F400641BD0B1FA96
:1028E00081F20B3AA41AA41ED2F12003914030FACF
:1028F00003F31943904001EBCC71002C01EB045120
:10290000BDE81040A8BF704701F1C0414FF0000082
:1029100001F000417047B0FA80F310FA03F100D1E2
:1029200010BDE41A173C4805C90AE4E701EB04515D
:1029300010BD491001EB0451BDE810404FEA3000D2
:1029400002E04FF0000170474A0008BF0042F8D093
:10295000B2F5001F28BF704701F000414FF00000A2
:1029600070479EEA445F07D011EA5E0FBDE8104051
:1029700004BF002100207047BDE8104070B5FFF78C
:10298000BFFE00BF40DFF63E83F0004110467047B7
:102990000000E0FF43004FEAD30C4FEA3C0C4340F9
:1029A0001FBF40070CF1605113F0FE4F70471CF041
:1029B000006F03D100200CF0004170470CF0004381
:1029C00043EA507010B540EACC0000F042FA00BF74
:1029D000000000924FEA0001FFF7E0BE4FF0004117
:1029E0004FF00000A1F500217047000090EA010FB0
:1029F00048BF81F0004100F17283421A3CBF801A47
:102A000089184FEAD0524FF07F4C1CEA410FA2EBDD
:102A1000D15318BF9CEA026F00F03B804FF0004C8E
:102A20004CEA00204CEA012121FA03FC10EB0C0CCB
:102A30001ED202F1FF325FEA1C2040EBC25038BFC9
:102A400070471CF07F0F4FEA400C18BFBCF17F4F5E
:102A500038BF7047C3F12003994008BF20F0010040
:102A6000BCF17F4F38BF7047A0F1C04000F037BACB
:102A70004FEA3C00000A40EBC25028BF1CF0FF0F99
:102A80004FEA400CE6D018BFBCF17F4F38BF70470B
:102A9000EAE79CEA026F05D010EA5C0F08BF00F07D
:102AA0000040704710B500F0D4F900BF64FBBE3E93
:102AB000014800F082BB00BF0000C07F401058BF3B
:102AC000C0F14040491058BFC1F140418142EFF38D
:102AD000008070474FF47F0C1CEAD0121EBF1CEA26
:102AE000D11392EA0C0F93EA0C0F00F0858090EA64
:102AF000010F48BF42F4807240F4000C41F4000022
:102B00002CF07F4120F07F4000B58142A2EB030210
:102B10000FF2081CACEB504EC0F100009EF800E034
:102B20004FEA4E0E00FB0EFC38BF49004FEA2C1C4A
:102B300002F5FA020CFB0EF34FEACE1E4FEA112CFF
:102B40004FEAC1210EEB635E42EB22420EFB0CFC0E
:102B50004FEA1C5300FB03114FEA112C4FEA0131DD
:102B60000EFB0CFC4FEADC4C00FB0C11C14228BFF1
:102B700009184CEB03335DF804EB10EB410143EB18
:102B8000C250B2F57C0F38BF704729D512F0F00F54
:102B90001CBF00F1C04000F00040704700818283FC
:102BA0008485868788898B8C8D8E8F91929395965C
:102BB00097999A9C9D9FA0A2A3A5A7A8AAACAEB0E6
:102BC000B2B3B5B7B9BCBEC0C2C5C7C9CCCED1D4EB
:102BD000D7D9DCDFE2E6E9ECF0F3F7FAFE0000001B
:102BE0004FEA400C0CF1807CBCF17E4F28BF70474F
:102BF000B0F1C04000F073B990EA010F0CEAD113B4
:102C000048BF42F48072624538BF634507D213F46F
:102C10007F0F16D080EA010000F00040704710B529
:102C200000F017F9097EFC3E00F005B880EA0100CB
:102C300000F00040704780EA010000F0004000F022
:102C40004EB912F47F0F04BF0248704780EA0100BA
:102C500000F045B90000C07F41000B0ED3F19E0289
:102C600008D950F400034FEA032323FA02F048BFC7
:102C70004042704710B500F0ECF800BF4992248044
:102C8000002070476FF0004282EA20007047000089
:102C900010F0004148BF4042B0FA80F310FA03F24E
:102CA000C3F19D030BD051EAC35101EB122053062F
:102CB00038BF704700F1010008BF20F001007047E5
:102CC000B0FA80F310FA03F2C3F19D030AD0D905DC
:102CD00001EB1220530638BF704700F1010008BF16
:102CE00020F001007047000050EA010C00F1138051
:102CF0001CF5000F58BFBCF5000F01D48842704787
:102D000007D710F5000F58BF11F5000F15D48842F2
:102D10007047894270471CF5000F04D5BCF5000FC1
:102D2000F7D5814270474FF0807C1CEB400F38BFD5
:102D30001CEB410F01D28142704710B500F089F8B9
:102D4000922449004FF000504FF08051FFF7B6BE7B
:102D50004FF47F0C1CEAD0121EBF1CEAD11392EA7A
:102D60000C0F93EA0C0F00F0478090EA010F48BF68
:102D700042F480724FF0004C4CEA00204CEA0121F2
:102D800002EB0302A0FB0113A2F50002002918BF09
:102D900043F001035B0028BF4FEA330342EB2242BA
:102DA0005FEA132C4CEBC2502EBFBCEB436FB2F565
:102DB0007C0F70474FEA036CBCF1004F08BF20F056
:102DC0000100B2F57C0F38BF70470BD582F0FF02CF
:102DD00012F5803FC8BF704700F1C040D8BF00F077
:102DE0000040704700F5000C5FEA4C0C48BF70478C
:102DF000B0F1C04000F073B890EA010F0CEAD113B3
:102E000048BF42F48072624538BF634504D280EA0D
:102E1000010000F00040704710B500F01AF800BF44
:102E20008900013E00F007B800F009B85FEA410CE4
:102E30005FEA1C6C08D080EA010000F050B85FEA3D
:102E4000400C5FEA1C6CF6D14FF00040A0F580000A
:102E500070470EF1020E2EF0030E5EF8044B244272
:102E600004D44FEA4102B2F17F4F11D84FEA400338
:102E7000B3F17F4F0CD80ED14FEAD07CB2F17F4F27
:102E80000CEB4C0C0CF1020C08BF4CEBD17C04E0B9
:102E90004FF0080C01E04FEAD17C0CEB4C0324FA14
:102EA00003F404F00704B4F1040C06D20EEB840C16
:102EB000BDE810404CF0010C6047DFE80CF007085B
:102EC00002024FF00040A0F5800010BD084642000D
:102ED00018BFD2F1807288BF00F0004010BDFF2102
:102EE00041EAD050C005704751EA000C00F1138050
:102EF0001CF5000F58BFBCF5000F01D4814270478C
:102F000007D711F5000F58BF10F5000F15D48142F7
:102F10007047894270471CF5000F04D5BCF5000FBF
:102F2000F7D5884270474FF0807C1CEB410F38BFCB
:102F30001CEB400F01D28842704780EA010081EA11
:102F4000000180EA0100FFF7F8BE00005FEA400CD4
:102F50005FEA1C6CBCF17F0314D4D3F1170240F379
:102F60001C804FF0010C0CFA02FCACF10103034091
:102F7000B3EB5C0220EA030008BF10EA0C0F88BF25
:102F800060447047B3F1FF3F28BF5FEA002C00F0B8
:102F9000004088BF40F07E507047BCF1FF0FB8BFC3
:102FA000704710B5FFF755FF40DBB6BE80F000401C
:102FB00090EA010F7FF521AD81F0004100F08FB85C
:102FC0004FEAD051002988BFD1F1FF0240F275804D
:102FD00001F17D014FEA002070B5490840F0004042
:102FE00038BF40080EA2430E040CD25C02FB02F371
:102FF00004FB03F3C3F14043A3FB0254ED0D45EA88
:10300000442202FB02F3A0FB03546D42C4F140448E
:1030100038BF641EA2FB05350023E2FB0453EA0B14
:1030200042EA4342A0FB023212F14004A2F1210322
:10303000E40903F07F031F2B32D904EBC15070BDAC
:10304000FEFAF7F3F0ECE9E6E4E1DEDCD9D7D4D21E
:10305000D0CECCCAC8C6C4C2C1BFBDBCBAB9B7B64F
:10306000B4B3B2B0AFAEACABAAA9A8A7A6A4A3A2B2
:10307000A1A09F9E9E9D9C9B9A99989797969594A8
:103080009393929190908F8E8E8D8C8C8B8A8A895F
:1030900089888787868685848483838282818180EC
:1030A00004FB04F6B6EB004603D5E64248BF641CB9
:1030B000C3E7A64258BF641CBFE711F0FF0F02D15F
:1030C00000F00040704710B5FFF7C3FE7FDBFFBE86
:1030D00090EA010F48BF81F000413FF58EAC421AE3
:1030E00004D882F00042A0EB020011444FEAD05213
:1030F0004FF07F4C1CEA410FA2EBD15318BF9CEA62
:10310000026F4AD04FF0004C4CEA00204CEA0121FB
:1031100021FA03FCB0EB0C0C0FD412F0FE0F36D0EA
:103120005FEA4C001DD5001240EBC25038BF70471B
:103130001CF03F0F18BF70470BE0A2F101025FEADD
:103140001C2040EBC25038BF70471CF07F0F18BFE7
:103150007047C3F12003994014BF401E20F00100C6
:10316000704780084FEA122308BF7047B0FA80FC0E
:10317000A2EB0C02CCF1280C60FA0CF093EA122FAF
:1031800004BF00EBC25070474FEAC3707047130A88
:103190005FEADC1008BF7047F6E79CEA026F04D0D4
:1031A00010EA5C0F08BF0020704710B5FFF751FE12
:1031B00040DFF63E81F0004070470CF00F03092B12
:1031C00008BF082000F07F800A2B0BD0082B18BF07
:1031D000704708BF1CF0400F0AD04FF000004FF0BE
:1031E000000170471CF0400F18BF4FF000407047BF
:1031F0001CF0100F08D020F0704300F07F4242EA2C
:10320000D3014FEA4370704700F0604021F07F42E5
:1032100042EA000201F07F4040EA727070474FF0CE
:10322000FF0C4CF4E06C1CEA11531CBF9CEA030C2D
:103230009445C2BFDA4201EB02517047002B0DD01A
:10324000BCF1000F0FD0002A01F00041A4BF41F0F3
:10325000E04141F07F614FF00000704701F0004114
:103260004FF00000704750EA01334FF09B0C18BF3D
:103270004CF0806C7EF4E0AF70474FF0FF0212EA32
:10328000D0521CBF92F0FF038B42C2BFD14200EB71
:10329000C1507047002A0AD0002B0BD0002900F043
:1032A0000040A4BF40F0FE4040F40000704700F032
:1032B0000040704743024FF00B0C18BF4CF0806C7D
:1032C0007FF4F6AB70471CF4801F11D01CF4E02F84
:1032D00003D06FEACC31490070474FF04050EFF314
:1032E000008222F0704242EA000282F300887047B6
:1032F0004FF00000704702030405060708090A0B97
:103300000C0D0E0F10100102000000000000000064
:10331000010203040607080900000000010203047B
:10332000000000000030F13D0070643E0000A33E4C
:103330000090CF3E0090F83E00400F3F00E0203F5D
:103340000000000015B78337CDE37B380EE1C538A8
:1033500060F69138AF5F0F38E1BC3E3823F447394F
:103360004C5555555555A53F7751C1166CC156BFA3
:103370009015CB19A001FA3EAD529C804F7E92BEB3
:10338000C4B1B4BD9EEE213ED43888BEE9FAA8BDD2
:1033900000004054FB21F93F3163621A61B4D03D13
:1033A0000000601A61B4D03D7370032E8A19A33BEC
:1033B0000000002E8A19A33BC14920259A837B393E
:1033C00000000000000000006E83F9A22915444EA1
:1033D000D15727FCC0DD34F5999562DB4190433C21
:1033E000AB6351FE61C5BBDE3A6E24B7E0D24D42FD
:1033F000EA2E49061C92D1091CEB1DFE3EA729B1FD
:10340000F53582E88444BB2E26709CE9417E5FB48A
:1034100039D69139F43953838B5F849C3B28F9BDAD
:10342000FF97F81F0F9805DE8B112FEF1F6D0A5ABB
:10343000CF7E366DB709CB27663F464F2DEA5F9E9C
:10344000C7BA27757BF1E5EBF739073DEA92528A57
:10345000B15FFB6B085D8D1F000000006E83F9A259
:103460002915444ED15727FCC0DD34F5999562DB10
:103470004190433CAB6351FEA6F810111111813FFE
:10348000D561C119A0012ABF7DFEB157E31DC73E1A
:10349000EB9C2B8AE6E55ABE7CD5CF5A3AD9E53D5E
:1034A000C0340008000000205C0000006C0100082F
:1034B0001C3500085C000020C407000088010008DB
:1034C00000000000000000000000C84000000000F4
:1034D00000000000000000000000000000000000EC
:1034E00000000000000000000000000002000000DA
:1034F00000000000000000001000000001000000BB
:1035000000127A000000000000000000000000002F
:0C351000000000000000000000000000AF
:0400000508000131BD
:00000001FF
