:020000040800F2
:100000002008002005020008550F0008B10C000868
:10001000450D000869030008AB110008000000004E
:10002000000000000000000000000000391100087E
:10003000DD030008000000000D1100083B1100085E
:100040001F0200081F0200081F0200081F0200080C
:100050001F0200081F0200081F0200081F020008FC
:100060001F0200081F0200081F0200081F020008EC
:100070001F0200081F0200081F0200081F020008DC
:100080001F0200081F0200081F0200081F020008CC
:100090001F0200081F0200081F0200081F020008BC
:1000A0001F0200081F0200081F0200081F020008AC
:1000B0001F0200081F0200081F0200081F0200089C
:1000C0001F0200081F0200081F0200081F0200088C
:1000D0001F0200081F0200081F0200081F0200087C
:1000E0001F0200081F0200081F0200081F0200086C
:1000F0001F0200081F0200081F0200081F0200085C
:100100001F0200081F0200081F0200081F0200084B
:100110001F0200081F0200081F0200081F0200083B
:100120001F0200081F0200081F0200081F0200082B
:1001300000F002F800F03CF80AA090E8000C8244BD
:100140008344AAF10107DA4501D100F031F8AFF29A
:10015000090EBAE80F0013F0010F18BFFB1A43F0A5
:1001600001031847F024000010250000103A24BFB6
:1001700078C878C1FAD8520724BF30C830C144BF0C
:1001800004680C607047000000230024002500264E
:10019000103A28BF78C1FBD8520728BF30C148BFEA
:1001A0000B6070471FB500F062F81FBD10B510BDA1
:1001B00000F0A4F81146FFF7F5FF01F083FA00F014
:1001C000C2F803B4FFF7F2FF03BC00F0C7F8000069
:1001D0000B49D1F800C04A685CF8043B1068184429
:1001E00042F8040B8C4528BFA1F1DC0C8A4228BFE1
:1001F000A1F1DC02C1F800C04A6020F00040704765
:10020000B80100200948804709480047FEE7FEE79B
:10021000FEE7FEE7FEE7FEE7FEE7FEE7FEE7FEE7B6
:1002200004480549054A064B70470000A91100081B
:1002300031010008200200202008002020040020B6
:10024000200400200B4910B5A1F17C020A4CC2E940
:100250003712372106E000EB104342F82130074BFC
:1002600000FB03400B1EA1F10101F4DC10BD0120D5
:10027000E8E7000058010020E119D666CD0D010025
:100280004FF0000200B5134694469646203922BF2F
:10029000A0E80C50A0E80C50B1F12001BFF4F7AF7A
:1002A000090728BFA0E80C5048BF0CC05DF804EB5C
:1002B000890028BF40F8042B08BF704748BF20F8CA
:1002C000022B11F0804F18BF00F8012B70477047C8
:1002D0007047704710B500F009F8006810BD10B500
:1002E000044600F003F8046010BD000000487047A9
:1002F000C001002000487047C00100207546FFF78C
:10030000F9FFAE4605006946534620F007008546D2
:1003100018B020B5FFF784FFBDE820404FF000067D
:100320004FF000074FF000084FF0000B21F00701DD
:10033000AC46ACE8C009ACE8C009ACE8C009ACE820
:10034000C0098D46704710B50446AFF300802046C3
:10035000BDE81040FFF735BF704700000149182085
:10036000ABBEFEE72600020000BFFEE7F8B504467C
:100370000A48406800900A48006801F00BFE0646F3
:100380002168009A501A01F005FE0746314601F037
:100390000BFD0546009820602846F8BD001000E0DF
:1003A000440000200949096841F08071074A116042
:1003B0000021074A51601146096841F001011160AE
:1003C00004494143044A116070470000FCED00E01D
:1003D000001000E040420F0044000020704772B659
:1003E00000BFFEE72DE9F041224C234D234E20694A
:1003F0004FF04048E0B1E06801F036FC2A46334651
:1004000001F034FB01F0E0FA00F0C6FF0546A068F9
:1004100001F090F8414601F005FE01F0BFFA2946CF
:1004200001F000FE2169C1F101012161BDE8F08107
:10043000FFF7CEFE01F002FB6FF01E073A4602F016
:1004400058F801F0C1FAA060FFF7C2FE01F0F6FA19
:100450003A4602F04EF801F0B7FAE06001F004FC11
:100460002A46334601F002FB01F0AEFA01F0D2F960
:10047000CCE700004800002044174154FB211940FC
:10048000C06A7047406A7047806A704701480068D8
:1004900070470000340000200348006803490978D1
:1004A0000844014908607047340000203C000020E7
:1004B00010B50848006840F01000064908600320A5
:1004C00000F098F80F2000F007F800F02BF800205B
:1004D00010BD00000020024070B504460E480078B0
:1004E0004FF47A71B1FBF0F00C490968B1FBF0F5FB
:1004F000284600F0C3FB08B1012070BD102C07D2C4
:1005000000222146501E00F037F80548046001E043
:100510000120F2E70020F0E73C000020400000202E
:100520003800002008B500BF1148806940F0010084
:100530000F4988610846806900F00100009000BF03
:1005400000BF00BF0846C06940F08050C86108463F
:10055000C06900F08050009000BF00BF00BF054997
:10056000486820F0E06040F00070486000BF08BDBF
:1005700000100240000001402DE9F05F80460D466A
:100580001646002700F026FE074639462A4633461F
:1005900001F00700C0F1070ABAF1040F02D94FF0C9
:1005A000040A01E0C0F1070AD14600F1040ABAF1D9
:1005B000070F02D24FF0000A01E0A0F1030AD4466F
:1005C0004FF0010A0AFA09FAAAF1010A0AEA020A34
:1005D0000AFA0CFA4FF0010B0BFA0CFBABF1010B12
:1005E0000BEA030B4AEA0B042146404600F0FAFDF1
:1005F000BDE8F09F00BF00F00702064B19684FF6F8
:10060000FF031940044B0B4343EA0221014B1960DD
:1006100000BF70470CED00E00000FA0570B504461D
:100620000D460CB9012070BD5A48006800F0070063
:10063000A8420ED25748006820F0070028435549C9
:1006400008600846006800F00700A84201D00120B9
:10065000E9E7207800F0020002281DD1207800F0A0
:100660000400042805D14C48406840F4E0604A4941
:100670004860207800F00800082805D14648406806
:1006800040F46050444948604348406820F0F0001E
:10069000A168084340494860207800F0010078B321
:1006A0006068012806D13C48006800F4003090B929
:1006B0000120B8E76068022806D13748006800F0DA
:1006C000007040B90120AEE73348006800F0020036
:1006D00008B90120A7E73048406820F003006168AE
:1006E00008432D494860FFF7D1FE064609E0FFF7B1
:1006F000CDFE801B41F28831884202D9032092E767
:1007000007E02548406800F00C006168B0EB810FFD
:10071000EDD12048006800F00700A8420ED91D481E
:10072000006820F0070028431A490860084600685E
:1007300000F00700A84201D0012074E7207800F003
:100740000400042807D11448406820F4E060E16800
:10075000084311494860207800F00800082808D1B3
:100760000D48406820F46050216940EAC1000A4900
:10077000486000F019F808494968C1F30311074AB5
:10078000515CC8400649086006480068FFF7A4FEAF
:10079000002048E70020024000100240DC2500084D
:1007A000400000203800002070B500210022002405
:1007B00000230020134D696801F00C05F5B1042DEC
:1007C00002D0082D19D101E00F4819E00F4DC1F3F7
:1007D0008346AB5D01F4803555B10A4D6D68C5F3B4
:1007E00040450B4E725D084D5D43B5FBF2F402E0EF
:1007F000084D03FB05F4204602E000BF024800BF9D
:1008000000BF70BD0010024000127A00CA25000827
:10081000DA25000800093D00F8B504460CB90120AE
:10082000F8BD207800F00100002878D0F848406832
:1008300000F00C0004280CD0F548406800F00C00D3
:10084000082811D1F248406800F48030B0F5803FAC
:100850000AD1EF48006800F4003000285FD06068DB
:1008600000285CD10120DBE700BF6068B0F5803F65
:1008700006D1E748006840F48030E549086028E088
:10088000606858B9E248006820F48030E0490860A8
:100890000846006820F4802008601AE06068B0F51F
:1008A000A02F0BD1DA48006840F48020D8490860B6
:1008B0000846006840F4803008600AE0D4480068C8
:1008C00020F48030D24908600846006820F4802077
:1008D000086000BF606888B1FFF7D8FD054606E0F4
:1008E000FFF7D4FD401B642801D9032098E7C848CE
:1008F000006800F400300028F2D010E0FFF7C6FDD9
:10090000054606E0FFF7C2FD401B642801D903201D
:1009100086E7BF48006800F400300028F2D1207854
:1009200000F00200022857D1B948406800F00C00DE
:1009300050B1B748406800F00C00082818D1B448FE
:10094000406800F4803098B9B148006800F00200B7
:1009500020B12069012801D0012061E7AC4800687E
:1009600020F0F800616940EAC100A949086033E05D
:100970002069E8B10120A7490860FFF787FD054617
:1009800006E0FFF783FD401B022801D9032047E75B
:100990009F48006800F002000028F2D09C480068E0
:1009A00020F0F800616940EAC1009949086013E04D
:1009B000002098490860FFF769FD054606E0FFF74B
:1009C00065FD401B022801D9032029E790480068F3
:1009D00000F002000028F2D1207800F0080008287A
:1009E0002DD1A069B8B101208B490860FFF74EFDF9
:1009F000054606E0FFF74AFD401B022801D9032007
:100A00000EE78348406A00F002000028F2D001207F
:100A100000F07EFB13E000207F490860FFF736FD01
:100A2000054606E0FFF732FD401B022801D90320EE
:100A3000F6E67748406A00F002000028F2D12078FC
:100A400000F00400042873D100277148C06900F049
:100A5000805070B900BF6E48C06940F080506C494A
:100A6000C8610846C06900F08050009000BF00BF18
:100A700001276A48006800F48070B0B967480068D0
:100A800040F4807065490860FFF700FD054606E008
:100A9000FFF7FCFC401B642801D90320C0E65F4837
:100AA000006800F480700028F2D000BFE0680128E0
:100AB00006D15748006A40F001005549086227E016
:100AC000E06858B95248006A20F0010050490862B5
:100AD0000846006A20F00400086219E0E068052872
:100AE0000BD14B48006A40F00400494908620846AF
:100AF000006A40F0010008620AE04548006A20F000
:100B00000100434908620846006A20F004000862B8
:100B100000BFE068A0B1FFF7B9FC054609E0FFF7A8
:100B2000B5FC401B41F28831884202D9032077E6A8
:100B300022E03748006A00F002000028EFD012E0FF
:100B4000FFF7A4FC054608E0FFF7A0FC401B41F2BC
:100B50008831884201D9032062E62D48006A00F0FE
:100B600002000028F0D1012F05D12948C06920F0EA
:100B700080502749C86100BFE069C8B32448406875
:100B800000F00C00082860D0E069022848D100205D
:100B900020490866FFF77AFC054606E0FFF776FC79
:100BA000401B022801D903203AE61948006800F0EA
:100BB00000700028F2D1206AB0F5803F07D11448B8
:100BC000406820F40030A168084311494860D4E926
:100BD000080108430E49496821F4741108430C497F
:100BE000486001200B490866FFF750FC054607E006
:100BF0003DE0FFF74BFC401B022801D903200FE624
:100C00000348006800F000700028F2D02FE00000D8
:100C10000010024000004242800442420070004046
:100C2000002014490866FFF731FC054606E0FFF78F
:100C30002DFC401B022801D90320F1E50E48006875
:100C400000F000700028F2D111E0E069012800D125
:100C5000E6E50948466806F48031206A814204D1FD
:100C600006F47011606A814201D00120D8E50020AD
:100C7000D6E50000000042420010024070B5044674
:100C80002546681EB0F1807F01D301200FE0681E69
:100C90004FF0E02148610F214FF0FF3000F0A2FA41
:100CA00000204FF0E021886107200861002070BD1E
:100CB00000BFFEE72DE9F04705460E461446002129
:100CC000204601F07BF905D34FF07E51204601F01C
:100CD00075FA00D20A4C21464FF07E5001F062FBBB
:100CE0008146314601F09EF907462146284601F02B
:100CF00099F98046394600F0E3FFBDE8F08700002F
:100D0000CDCC4C3E08B500BF0D48806940F02000B6
:100D10000B4988610846806900F02000009000BF00
:100D200000BF00BF0846806940F0040088610846A3
:100D3000806900F00400009000BF00BF08BD000003
:100D40000010024000BFFEE70C4941630C4981637B
:100D50000C49C1630C4901640C4941640C4981642C
:100D60004FF07C51C1640B490163002141608160F7
:100D7000C1608161C1610162704700001283403D22
:100D80008FC2F53C2DB23D3FFE65373F6666E63FBC
:100D90002766BD3B0000C0412DE9F047056B0E46BC
:100DA000044685F0004791463946304601F006F981
:100DB00001D23D4605E02946304601F0FFF900D357
:100DC00035466768606C394601F02CF9A6688046A4
:100DD0003146206C01F026F9294601F051FA4146CE
:100DE00001F0E0FAA16C00F0DFFF2061A16900F0E2
:100DF00067FF494601F016F94FF0FF35294601F02B
:100E0000A6FB394600F05CFF014660604C4A26F0C4
:100E1000004090420ADAE06B01F004F920F0004053
:100E2000E16C01F0CBF801D200201AE0A66816F1BF
:100E3000FF4F02D24FF07E5000E04248E16C01F0DB
:100E4000F1F807463146A06B01F0ECF80646616800
:100E5000E06B01F0E7F8314601F0A4FA394601F001
:100E6000A1FA6061616B00F09FFF60610646E16975
:100E700000F026FF494601F0D5F82F46294601F03B
:100E800066FBA16800F01CFFA0600546216A00F027
:100E900017FF494601F0C6F8394601F058FBE168F2
:100EA00000F00EFFE06020692562C4E90606FFF746
:100EB00099FA254901F0B6F8616800F001FF234E68
:100EC000314600F071FF0D2101F041FB00F022FBE3
:100ED00001F048F86FF00C05294601F038FB314667
:100EE00001F0A0F81A4E60623146E06800F05CFF45
:100EF0000D2101F02CFB00F00DFB01F033F8294629
:100F000001F025FB314601F08DF8E16A01F04AFA63
:100F1000494600F049FFA0623146E06800F044FF16
:100F20000D2101F014FB00F0F5FA01F01BF8294641
:100F300001F00DFB314601F075F8E062BDE8F08785
:100F40006F12033B000080BF9A99993E5655554158
:100F5000DA0FC94000BFFEE72DE9F05F07460D46F6
:100F600014461E460021284601F028F802D8002029
:100F7000BDE8F09F3146384601F014FA2062294658
:100F8000206A01F04FF88046A16900F099FEA06147
:100F90002049A06901F012F902D21E48A06106E0C2
:100FA0001D49A06901F00AF801D21B48A061D4E9EB
:100FB000071001F0F7F98046294600F0F5FEA0621F
:100FC000A16A206901F02EF88146A169A06801F0AC
:100FD00029F88246216A206801F024F883465146A8
:100FE00000F06EFE8046494600F06AFEE062094964
:100FF000E06A01F0E3F802D20648E06206E0064942
:10100000E06A00F0DBFF01D20348E062206AE061A1
:10101000E06AADE700401C4600401CC62DE9F05FC9
:1010200007460D4614461E460021284600F0C6FF1E
:1010300002D80020BDE8F09F3146384601F0B2F9F1
:1010400020622946206A00F0EDFF8046A16900F089
:1010500037FEA0612049A06901F0B0F802D21E4815
:10106000A06106E01D49A06900F0A8FF01D21B485D
:10107000A061D4E9071001F095F98046294600F0F7
:1010800093FEA062A16A606900F0CCFF8146A1696D
:10109000E06800F0C7FF8246216A606800F0C2FF86
:1010A0008346514600F00CFE8046494600F008FE9B
:1010B000E0620949E06A01F081F802D20648E06284
:1010C00006E00649E06A00F079FF01D20348E062D9
:1010D000206AE061E06AADE700401C4600401CC6A3
:1010E00000B9704707490160416007498160C160EC
:1010F0000021016141618161C161016241628162DE
:1011000000BFEEE700004842CDCCCC3D7047000068
:1011100008B508490968C9084FF47A72B1FBF2F1C1
:101120004143009100BF00BF00994A1E0092002970
:10113000F9D108BD40000020704710B5FFF7ACF9A9
:1011400010BD00B58FB0282105A8FFF799F814212C
:101150006846FFF795F801200590000406900020EE
:1011600007900120099002200C90C1030D914FF4CB
:10117000E0110E9105A8FFF74FFB08B1FFF72FF91B
:101180000F20009002200190002002904FF4806018
:1011900003900020049002216846FFF73FFA08B14F
:1011A000FFF71DF90FB000BD704700BFFEE741001B
:1011B000080218BF04200A0E18BF40F001004FF0CB
:1011C0007F4232EA010108BF40F00200012808BF57
:1011D0000520704702480068C0F3022070470000F5
:1011E0000CED00E010B5002804DB0A07130E054AD9
:1011F000135406E00A07140E034A00F00F031B1FE6
:10120000D45410BD00E400E018ED00E000214FF0E0
:101210007E5000F0C9BD012101F099B900210846B6
:1012200000F0C2BD6FF05E01080701F090B9000048
:101230002DE9F04D0D4614464FF07F41B1EB440FC0
:101240009EBF4FF0FF312960BDE8F08D4FF00040A8
:1012500040EA0421C4F3C750783810F01F024A4B0B
:101260004FEA601CC2F120067B44C4F3C750A0F1D2
:1012700078004FEA601003EB800053F82C3008BF71
:10128000D0E901C612D0D0F804C093402CFA06F77A
:101290003B4387680CFA02FC27FA06F8C06807FA95
:1012A00002F2F0404CEA080C42EA0006A3FB0132CD
:1012B000ACFB01C0A6FB016101EB0C068E4234BF02
:1012C0004FF0010C4FF0000CC1186144BCF1000F4D
:1012D00002D0814202D903E0814201D2012000E024
:1012E0000020104400F120024FEA92188006CA0C38
:1012F00040EA42304F03C5F8008000F033FE8246DA
:10130000384600F047FE6FF0120101F020F9074661
:10131000304600F03FFE6FF0250101F018F98346DA
:101320003946504600F0CCFC594600F0C9FC00F5A7
:1013300000666FF30B065146304601F033F839462C
:1013400001F030F8594600F09BFF104900F06AFEAA
:1013500007460F49304600F065FE394600F0B0FC04
:1013600007460C49304600F05DFE394600F0A8FC07
:1013700014F0004F08BFBDE8F08DC8F1805180F037
:1013800000402960BDE8F08DC8130000DB0FC92FB5
:1013900022AAFD290000C92F2DE9F8430446024680
:1013A0004F486946B0EB420F09D94FF0E640B0EB29
:1013B000420F94BF00204FF0FF30009030E0494BC7
:1013C00022F00040834271D94749204600F02AFEAE
:1013D00000F026FF804600F0A9FD00F00300009019
:1013E0004249404600F01EFE05464149404600F095
:1013F00019FE06463F49404600F014FE07463E49A6
:10140000404600F00FFE214600F03AFF394600F05A
:10141000C9FF314600F0C6FF294600F0C3FF04466D
:101420002546009C002C45DB294614F0010F084698
:101430001CD000F0F7FD0646304900F0F3FD3049BE
:1014400000F01EFF314600F0EDFD2E4900F038FCA3
:10145000314600F0E7FD294600F0E4FD294600F0A2
:101460002FFC14F0020F1CD0BDE8F88300F0DAFD69
:101470000546254900F0D6FD244900F021FC294607
:1014800000F0D0FD224900F01BFC294600F0CAFD07
:101490004FF07E5100F014FC14F0020F08BFBDE8BD
:1014A000F88380F00040BDE8F883FFE71046FFF7BF
:1014B000BFFEB4E76800B0F17F4F3CBF4FF07E50F5
:1014C000BDE8F88307D14FF00100FEF708FFBDE843
:1014D000F843FFF7A3BE2846BDE8F843FFF79BBEDD
:1014E000B61F927E490E494683F9223F1A61342C79
:1014F0000020A23300A0FD390000C93F336D4C39F4
:10150000DA82083CA0AA2ABEB93AB2BACA9F2A3DDA
:10151000DDFFFFBE70B5054600F008FD044600F093
:1015200021FD294600F0ACFEB0F17C5F00DD641CBB
:10153000204670BD2DE9F0410026A0F50001B1F173
:10154000FE4F7DD200F500226FF07E0101EBE251EB
:10155000C2F3025477184FF07E52A0EBC15602EB53
:10156000045557EA040047D02946304600F0A8FB4E
:1015700080462946304600F015FF414600F014FC35
:101580000546014600F04EFD8046454900F04AFD03
:10159000444900F095FB06464146284600F042FDCE
:1015A000314600F03FFD0646384600F0DBFC0746BA
:1015B0003D4900F037FD3D49794451F8241000F0D1
:1015C0007FFB314600F07CFB06460121284600F0F7
:1015D000BEFF314600F074FB05463846344900F042
:1015E00021FD3449794451F8241000F069FB294663
:1015F000BDE8F04100F064BB4FF07E51304600F092
:10160000D1FE05462C4900F00DFD2C4900F058FB99
:10161000294600F007FD2A4900F052FB294600F058
:1016200001FD6FF0824100F04BFB0446294608465D
:1016300000F0F8FC214600F0F5FC0146284600E0E9
:1016400003E0BDE8F04100F03BBB4FF07F42B2EB5E
:10165000400F03D2BDE8F041FFF7DDBDB0F1FF4F11
:1016600008BFBDE8F081B0F1004F06D90120FEF7B8
:1016700036FEBDE8F041FFF7D1BD30F0004105D0A6
:101680006FF01606172100F062FF5BE70220FEF7FD
:1016900026FEFFF7BBFD80F00040BDE8F0810000B2
:1016A00066F1CC3EAAAA2A3FF4FD05385810000086
:1016B0000070313F0C10000021ED423E0A1180BE47
:1016C000C1ABAA3EFEF7F4FEFFF73BFDFFF71AFBA6
:1016D0004820FEF767FE4148FFF736FB4048FFF71A
:1016E000FFFC3E48FEF7D0FE3E4908603B48FEF74F
:1016F000C7FE3D49086070E03C48FEF737FE3C49B4
:101700000860084601683B48006800F0D9FA39498A
:1017100008603248FEF7B6FE314948622F48FEF7AE
:10172000B3FE354908602D48FEF7AAFE334908602C
:10173000334A2C48016830480068FFF7BBFA294952
:1017400008602F4A284801682C480068FFF7B2FA61
:10175000254908602B48006801280ED100202A493D
:10176000086021481E4A036821480168264800682D
:10177000FFF7F2FB2549086028E0224800680228AC
:1017800024D10020204908601748154A03681848EA
:1017900001681D480068FFF7DFFB1D490860084627
:1017A00001684FF07C5000F03DFC04460D480C4AA7
:1017B00003680F48016816480068FFF72FFC0546CC
:1017C000214600F07DFA1149086000BF0848026810
:1017D0000E4801680148FFF7DFFA8DE75C00002042
:1017E000AC00002000000020040000201C000020AD
:1017F0002000002024000020100000201400002001
:10180000CDCC4C3E2C0000201800002028000020E9
:101810000C0000202DE9F843044602465248694670
:10182000B0EB420F09D94FF0E640B0EB420F94BF46
:1018300000204FF0FF30009030E04C4B22F0004091
:10184000834271D94A49204600F0ECFB00F0E8FCE5
:10185000804600F06BFB00F00300009045494046D5
:1018600000F0E0FB05464449404600F0DBFB06463D
:101870004249404600F0D6FB07464149404600F049
:10188000D1FB214600F0FCFC394600F08BFD3146CF
:1018900000F088FD294600F085FD04462546009CA1
:1018A000002C45DB294614F0010F08461ED000F03D
:1018B000B9FB0546334900F0B5FB334900F000FAA7
:1018C000294600F0AFFB314900F0FAF9294600F053
:1018D000A9FB4FF07E5100F0F3F914F0020F08BF9E
:1018E000BDE8F88380F00040BDE8F88300F09AFB83
:1018F0000646274900F096FB264900F0C1FC314618
:1019000000F090FB244900F0DBF9314600F08AFB3F
:10191000294600F087FB294600F0D2F914F0020FA7
:10192000E0D1BDE8F883FFE71046FFF781FCB4E79C
:101930006800B0F17F4F09D22846FFF738FC042831
:1019400008BFFFF76FFC2846BDE8F88306D10120E9
:10195000FEF7C5FCBDE8F843FFF760BC2846BDE8CC
:10196000F843FFF758BC0000B61F927E490E494667
:1019700083F9223F1A61342C0020A23300A0FD39E4
:101980000000C93FB93AB2BACA9F2A3DDDFFFFBE87
:10199000336D4C39DA82083CA0AA2ABE70B50546E0
:1019A00000F078FC044620F00040C0F1FF40C00F7A
:1019B00008D025F00040C0F1FF40C00F04BF012057
:1019C000FEF78DFC204670BD21F00042A2F160526E
:1019D000B2F5801F01F0004328BFD2F17F6C0BD914
:1019E0005FEA001C43EAC20242EB507018BF704726
:1019F00028BF20F001007047B2F5801FBCBF184619
:101A000070474FEA410C1CF5001F02D2084600F057
:101A1000D0BB70B500F0D4F800000089FFF7F6BF26
:101A20004FF00040A0F580007047000002494FF0E1
:101A3000000000F02CBD00BF0000F87F10F0004255
:101A400048BF4042B0FA80F310FA03F10AD0C3F164
:101A50001D0303F580634FEA415002EB035202EB92
:101A6000D12170474FF0000070470000DFF848C1F7
:101A700070B51CEA111E1EBF1CEA13159EEA0C0F5E
:101A800095EA0C0F00F06F8081EA030423EA4C13FF
:101A90004EEAD47E21EA4C1141F4801143F48013C4
:101AA000AE44A1FB024CA0FB0365AEF17F7E36196C
:101AB00055EB0C05A1FB034C4CF10003A0FB021CF1
:101AC00016EB0C06654153F10003094218BF46F0BE
:101AD000010613F4007F0BD14FEA03314FEA0530C2
:101AE000340341EA155140EA16506FF003020AE050
:101AF0004FEAC3214FEAC520F40241EA555140EABA
:101B000056506FF0020202EB2E4201EB025585EABD
:101B1000CE710AD05FEA440C18BF24F0004450F1A3
:101B2000000041F1000120EAD47040F2FE7C6245E1
:101B300000D270BDA84214BF4FF080444FF0404423
:101B4000002E08BF0024BEF1806FA8BFA1F1C041E4
:101B5000BDE8704080F282804FF0000001F1C0418A
:101B600001F0004170479EEA0C0F0CEA131518BFF4
:101B700095EA0C0F06D04FF0000081EA030E0EF03C
:101B8000004170BD00F01CF88900013E00F007B86C
:101B900000F009B84FEA430C5FEA5C5C08D081EAC8
:101BA000030100F05BB84FEA410C5FEA5C5CF6D1E0
:101BB0004FF00000014970470000FF070000F87F68
:101BC0000EF1020E2EF0030E5EF8046B364205D4C1
:101BD000012A43EB030515F5001F12D8012841EB3C
:101BE000010C1CF5001F0CD80ED14FEAD17C15F565
:101BF000001F0CEB4C0C0CF1020C08BF4CEBD37C1F
:101C000004E04FF0080C01E04FEAD37C0CEB4C05EC
:101C100026FA05F606F00706B6F1040C06D20EEB1E
:101C2000860CBDE870404CF0010C6047DFE80CF01A
:101C3000090B02024FF000414FF00000A1F5002116
:101C400070BD19461046012851EB010418BFD4F5A8
:101C5000001484BF002001F0004170BD0808A0F509
:101C600000114FEA3101704743004FEAD30C4FEAAD
:101C70003C0C43401FBF40070CF1605113F0FE4F76
:101C800070471CF0006F03D100200CF0004170473A
:101C90000CF0004343EA507010B540EACC0000F06D
:101CA00042FA00BF000000924FEA0001FFF7D6BFE2
:101CB0004FF000414FF00000A1F5002170470000F7
:101CC00090EA010F48BF81F0004100F17283421A8F
:101CD0003CBF801A89184FEAD0524FF07F4C1CEA63
:101CE000410FA2EBD15318BF9CEA026F00F03B807A
:101CF0004FF0004C4CEA00204CEA012121FA03FC91
:101D000010EB0C0C1ED202F1FF325FEA1C2040EBFC
:101D1000C25038BF70471CF07F0F4FEA400C18BF0D
:101D2000BCF17F4F38BF7047C3F12003994008BF13
:101D300020F00100BCF17F4F38BF7047A0F1C040D8
:101D400000F037BA4FEA3C00000A40EBC25028BF0F
:101D50001CF0FF0F4FEA400CE6D018BFBCF17F4FDC
:101D600038BF7047EAE79CEA026F05D010EA5C0FC3
:101D700008BF00F00040704710B500F0D4F900BF74
:101D800064FBBE3E014800F082BB00BF0000C07F84
:101D9000401058BFC0F14040491058BFC1F1404108
:101DA0008142EFF3008070474FF47F0C1CEAD012A1
:101DB0001EBF1CEAD11392EA0C0F93EA0C0F00F03D
:101DC000858090EA010F48BF42F4807240F4000C15
:101DD00041F400002CF07F4120F07F4000B58142AB
:101DE000A2EB03020FF2081CACEB504EC0F1000056
:101DF0009EF800E04FEA4E0E00FB0EFC38BF490093
:101E00004FEA2C1C02F5FA020CFB0EF34FEACE1E31
:101E10004FEA112C4FEAC1210EEB635E42EB2242E6
:101E20000EFB0CFC4FEA1C5300FB03114FEA112C74
:101E30004FEA01310EFB0CFC4FEADC4C00FB0C11AD
:101E4000C14228BF09184CEB03335DF804EB10EBDB
:101E5000410143EBC250B2F57C0F38BF704729D522
:101E600012F0F00F1CBF00F1C04000F000407047BE
:101E7000008182838485868788898B8C8D8E8F9163
:101E80009293959697999A9C9D9FA0A2A3A5A7A887
:101E9000AAACAEB0B2B3B5B7B9BCBEC0C2C5C7C9B3
:101EA000CCCED1D4D7D9DCDFE2E6E9ECF0F3F7FA17
:101EB000FE0000004FEA400C0CF1807CBCF17E4F2C
:101EC00028BF7047B0F1C04000F073B990EA010F2D
:101ED0000CEAD11348BF42F48072624538BF6345B3
:101EE00007D213F47F0F16D080EA010000F0004003
:101EF000704710B500F017F9097EFC3E00F005B8F8
:101F000080EA010000F00040704780EA010000F024
:101F1000004000F04EB912F47F0F04BF0248704732
:101F200080EA010000F045B90000C07F41000B0EBF
:101F3000D3F19E0208D950F400034FEA032323FA99
:101F400002F048BF4042704710B500F0ECF800BF07
:101F500049922480002070476FF0004282EA2000FE
:101F60007047000010F0004148BF4042B0FA80F3D3
:101F700010FA03F2C3F19D030BD051EAC35101EBF8
:101F80001220530638BF704700F1010008BF20F04F
:101F900001007047B0FA80F310FA03F2C3F19D0319
:101FA0000AD0D90501EB1220530638BF704700F163
:101FB000010008BF20F001007047000050EA010C4A
:101FC00000F113801CF5000F58BFBCF5000F01D4C1
:101FD0008842704707D710F5000F58BF11F5000F62
:101FE00015D488427047894270471CF5000F04D50C
:101FF000BCF5000FF7D5814270474FF0807C1CEB99
:10200000400F38BF1CEB410F01D28142704710B521
:1020100000F089F8922449004FF000504FF08051B1
:10202000FFF7B6BE4FF47F0C1CEAD0121EBF1CEAAD
:10203000D11392EA0C0F93EA0C0F00F0478090EA5C
:10204000010F48BF42F480724FF0004C4CEA002070
:102050004CEA012102EB0302A0FB0113A2F50002EE
:10206000002918BF43F001035B0028BF4FEA330388
:1020700042EB22425FEA132C4CEBC2502EBFBCEB6A
:10208000436FB2F57C0F70474FEA036CBCF1004F11
:1020900008BF20F00100B2F57C0F38BF70470BD5A8
:1020A00082F0FF0212F5803FC8BF704700F1C040C8
:1020B000D8BF00F00040704700F5000C5FEA4C0C00
:1020C00048BF7047B0F1C04000F073B890EA010F0C
:1020D0000CEAD11348BF42F48072624538BF6345B1
:1020E00004D280EA010000F00040704710B500F013
:1020F0001AF800BF8900013E00F007B800F009B8E7
:102100005FEA410C5FEA1C6C08D080EA010000F035
:1021100050B85FEA400C5FEA1C6CF6D14FF000400B
:10212000A0F5800070470EF1020E2EF0030E5EF84F
:10213000044B244204D44FEA4102B2F17F4F11D83C
:102140004FEA4003B3F17F4F0CD80ED14FEAD07C59
:10215000B2F17F4F0CEB4C0C0CF1020C08BF4CEBB6
:10216000D17C04E04FF0080C01E04FEAD17C0CEB8D
:102170004C0324FA03F404F00704B4F1040C06D26F
:102180000EEB840CBDE810404CF0010C6047DFE81A
:102190000CF0070802024FF00040A0F5800010BDCF
:1021A0000846420018BFD2F1807288BF00F000409C
:1021B00010BDFF2141EAD050C005704751EA000C24
:1021C00000F113801CF5000F58BFBCF5000F01D4BF
:1021D0008142704707D711F5000F58BF10F5000F67
:1021E00015D481427047894270471CF5000F04D511
:1021F000BCF5000FF7D5884270474FF0807C1CEB90
:10220000410F38BF1CEB400F01D28842704780EA73
:10221000010081EA000180EA0100FFF7F8BE00003A
:102220005FEA400C5FEA1C6CBCF17F0314D4D3F16D
:10223000170240F31C804FF0010C0CFA02FCACF1C9
:1022400001030340B3EB5C0220EA030008BF10EA7D
:102250000C0F88BF60447047B3F1FF3F28BF5FEAAF
:10226000002C00F0004088BF40F07E507047BCF169
:10227000FF0FB8BF704710B5FFF755FF40DBB6BE84
:1022800080F0004090EA010F7FF521AD81F0004120
:1022900000F08FB84FEAD051002988BFD1F1FF027A
:1022A00040F2758001F17D014FEA002070B54908C8
:1022B00040F0004038BF40080EA2430E040CD25C30
:1022C00002FB02F304FB03F3C3F14043A3FB0254FC
:1022D000ED0D45EA442202FB02F3A0FB03546D42DC
:1022E000C4F1404438BF641EA2FB05350023E2FB65
:1022F0000453EA0B42EA4342A0FB023212F14004CB
:10230000A2F12103E40903F07F031F2B32D904EB70
:10231000C15070BDFEFAF7F3F0ECE9E6E4E1DEDC73
:10232000D9D7D4D2D0CECCCAC8C6C4C2C1BFBDBC16
:10233000BAB9B7B6B4B3B2B0AFAEACABAAA9A8A79E
:10234000A6A4A3A2A1A09F9E9E9D9C9B9A999897AC
:10235000979695949393929190908F8E8E8D8C8C6E
:102360008B8A8A8989888787868685848483838205
:102370008281818004FB04F6B6EB004603D5E64279
:1023800048BF641CC3E7A64258BF641CBFE711F0F6
:10239000FF0F02D100F00040704710B5FFF7C3FEF9
:1023A0007FDBFFBE90EA010F48BF81F000413FF59F
:1023B0008EAC421A04D882F00042A0EB0200114415
:1023C0004FEAD0524FF07F4C1CEA410FA2EBD153A1
:1023D00018BF9CEA026F4AD04FF0004C4CEA002034
:1023E0004CEA012121FA03FCB0EB0C0C0FD412F0E3
:1023F000FE0F36D05FEA4C001DD5001240EBC250F4
:1024000038BF70471CF03F0F18BF70470BE0A2F1B8
:1024100001025FEA1C2040EBC25038BF70471CF03D
:102420007F0F18BF7047C3F12003994014BF401EAF
:1024300020F00100704780084FEA122308BF704760
:10244000B0FA80FCA2EB0C02CCF1280C60FA0CF084
:1024500093EA122F04BF00EBC25070474FEAC370DB
:102460007047130A5FEADC1008BF7047F6E79CEA82
:10247000026F04D010EA5C0F08BF0020704710B54F
:10248000FFF751FE40DFF63E81F0004070470CF050
:102490000F03092B08BF082000F07F800A2B0BD008
:1024A000082B18BF704708BF1CF0400F0AD04FF030
:1024B00000004FF0000170471CF0400F18BF4FF0B4
:1024C000004070471CF0100F08D020F0704300F05F
:1024D0007F4242EAD3014FEA4370704700F0604008
:1024E00021F07F4242EA000201F07F4040EA727030
:1024F00070474FF0FF0C4CF4E06C1CEA11531CBF0A
:102500009CEA030C9445C2BFDA4201EB02517047CA
:10251000002B0DD0BCF1000F0FD0002A01F00041BC
:10252000A4BF41F0E04141F07F614FF000007047EF
:1025300001F000414FF00000704750EA01334FF0C6
:102540009B0C18BF4CF0806C7FF470AA70474FF062
:10255000FF0212EAD0521CBF92F0FF038B42C2BFAF
:10256000D14200EBC1507047002A0AD0002B0BD09B
:10257000002900F00040A4BF40F0FE4040F40000FD
:10258000704700F00040704743024FF00B0C18BF3B
:102590004CF0806C7FF4F6AB70471CF4801F11D0B8
:1025A0001CF4E02F03D06FEACC31490070474FF0A4
:1025B0004050EFF3008222F0704242EA000282F3C0
:1025C000008870474FF000007047020304050607BB
:1025D00008090A0B0C0D0E0F10100102000000007C
:1025E00000000000010203040607080900000000C3
:1025F00001020304000000000030F13D0070643E61
:102600000000A33E0090CF3E0090F83E00400F3FF8
:1026100000E0203F0000000015B78337CDE37B3892
:102620000EE1C53860F69138AF5F0F38E1BC3E3837
:1026300023F44739000000006E83F9A22915444EA7
:10264000D15727FCC0DD34F5999562DB4190433CBE
:10265000AB6351FE74260008000000205C000000FF
:102660006C010008D02600085C000020C4070000B0
:102670008801000800000000000000000000A040E9
:10268000000000000000000000000000000000004A
:10269000000000000000000000000000000000003A
:1026A0000200000000000000000000001000000018
:1026B0000100000000127A0000000000000000008D
:1026C000000000000000000000000000000000000A
:0400000508000131BD
:00000001FF
